:020000040800F2
:1000000058040020A1010008430F0008910E0008C9
:10001000410F0008AD020008631200080000000054
:10002000000000000000000000000000470F000872
:10003000AF02000800000000450F0008490F00084B
:10004000BB010008BB010008BB010008BB010008A0
:10005000BB010008BB010008BB010008BB01000890
:10006000BB010008BB010008BB010008BB01000880
:10007000BB010008BB010008BB010008BB01000870
:10008000BB010008BB010008BB010008BB01000860
:10009000BB010008BB010008BB010008BB01000850
:1000A000BB010008BB010008BB010008BB01000840
:1000B000BB010008BB010008BB010008BB01000830
:1000C000BB010008BB010008BB010008BB01000820
:1000D000BB010008F10F0008BB010008BB010008CC
:1000E000BB010008BB010008BB010008BB01000800
:1000F000BB010008BB010008BB010008BB010008F0
:10010000BB010008BB010008BB010008BB010008DF
:10011000BB010008BB010008BB010008BB010008CF
:10012000BB010008BB010008BB010008BB010008BF
:10013000BB010008BB010008BB010008BB010008AF
:10014000BB010008BB010008BB010008BB0100089F
:10015000BB010008BB010008BB010008BB0100088F
:10016000BB010008BB010008BB010008BB0100087F
:10017000BB010008BB010008BB0100080000000033
:10018000BB010008BB010008DFF810D000F07CF8CC
:1001900000480047A5120008AFF300805804002073
:1001A0000648804706480047FEE7FEE7FEE7FEE711
:1001B000FEE7FEE7FEE7FEE7FEE7FEE7E10F0008E9
:1001C000890100082DE9F05F0546002092469B4614
:1001D00088460646814640241BE02846414647465D
:1001E000224600F041F853465A46C01A914110D3B6
:1001F00011461846224600F028F82D1A67EB010830
:100200004F4622460120002100F01FF817EB00099D
:100210004E41201EA4F10104DFDC484631462A4647
:100220004346BDE8F09FD2B201E000F8012B491E21
:10023000FBD270470022F6E710B513460A46044683
:100240001946FFF7F0FF204610BD202A04DB203AB4
:1002500000FA02F1002070479140C2F1200320FA19
:1002600003F3194390407047202A04DB203A21FA17
:1002700002F00021704721FA02F3D040C2F12002BF
:100280009140084319467047064C074D06E0E06868
:1002900040F0010394E8070098471034AC42F6D3CD
:1002A000FFF776FFEC1200080C130008FEE770471A
:1002B00072B6FEE790F83510022903D0802141651F
:1002C00001207047052180F835100068016821F091
:1002D000010101600020704770B5044600F014F978
:1002E0000546601C02D004480078044400F00CF974
:1002F000401BA042FAD370BD040000202DE9F84F46
:10030000DFF8BCA10022012503264FF00F090AF1F6
:10031000040BAAF1040E00BF0B6805FA02F4234097
:10032000A34270D10F7907F00307012F01D0022FEC
:1003300016D187684FEA420806FA08FC27EA0C073C
:10034000D1F80CC00CFA08FC4CEA070CC0F808C045
:100350004768A7430C79C4F3001494403C434460BD
:100360000C79E443A4070AD0C4684FEA420C06FAA9
:100370000CF7BC438F6807FA0CF72743C7600C796A
:1003800004F00304022C12D1D40800EB840CDCF836
:1003900020405707FF0E09FA07F824EA0804D1F8AD
:1003A000108008FA07F848EA0408CCF820800468AE
:1003B0004FEA420C06FA0CF7BC430F7907F003072B
:1003C00007FA0CF7274307604C6814F4403F70D0DD
:1003D0003C4C276847F480472760246822F00307D5
:1003E00004F480440094384C07EB040CDCF8084813
:1003F00097074FEA177809FA08F7BC43334FB8421A
:1004000002D1002724E054E0314FB84201D1012746
:100410001EE0304FB84201D1022719E02E4FB842FA
:1004200001D1032714E02D4FB84201D104270FE07A
:100430002B4FB84201D105270AE02A4FB84201D11B
:10044000062705E0284FB84201D1072700E008271A
:1004500007FA08F72743CCF80878DAF8004057463F
:10046000D1F804C09C435FEACC2C00D51C433C600F
:10047000DBF800405F46D1F804C09C435FEA8C2C57
:1004800000D51C433C60DEF800407746D1F804C03C
:100490009C435FEA8C3C00D51C433C60084F083FFE
:1004A0003C68D1F804C09C435FEACC3C00D51C43B7
:1004B0003C60521C102AFFF42FAFBDE8F88F0000FB
:1004C000083C014044380240003001400000024036
:1004D0000004024000080240000C024000100240EC
:1004E0000014024000180240001C0240426921EA48
:1004F00002030A4043EA0241816170470AB1816107
:1005000070470904FBE7000001488068704700005D
:10051000040000200248816802781144816070471D
:10052000040000200B4810B5016841F4007101601F
:10053000016841F480610160016841F480710160EB
:10054000032000F06FF80F2000F006F800F024F808
:10055000002010BD003C024070B50D4D04464FF424
:100560007A712878B1FBF0F00A490968B1FBF0F024
:1005700000F00AFB48B9102C07D200222146501E79
:1005800000F030F800206C6070BD012070BD0000EC
:1005900004000020100000200A4808B5016841F45A
:1005A00080410160006800F4804000900548001F11
:1005B000016841F080510160006800F080500090B7
:1005C00008BD000044380240002809DB00F01F028B
:1005D000012191404009800000F1E020C0F80011A5
:1005E00070470000F0B40E4B1B680C46C3F30223A7
:1005F000C3F10705042D00D90425191D072901D2CF
:10060000002300E0DB1E012606FA05F1491E214009
:1006100099409E40761E16403143F0BC00F022BE49
:100620000CED00E0064900F0070208684FF6FF03F2
:10063000184040EA0220034A104308607047000057
:100640000CED00E00000FA052DE9F0470E4605002C
:1006500065D0DFF81481D8F80000F7B200F0070089
:10066000B04207D288F80070D8F8000000F0070008
:10067000B04254D128683D4C810712D5400703D5BC
:10068000206840F4E05020602878000703D52068F7
:1006900040F4604020602068A96820F0F000084322
:1006A00020602878C0072DD03049686808390128B3
:1006B00012D0022813D0032811D009688907002915
:1006C0002DDA216821F0030101432160FFF71CFFAF
:1006D000814641F2883A0EE009688903EFE709682C
:1006E0008901ECE7FFF710FFA0EB0901514502D9A2
:1006F0000320BDE8F0872068696800F00C00B0EBCB
:10070000810FEFD1D8F80010404601F00701B14247
:1007100007D90770006800F00700B04201D001203F
:10072000E7E72878400705D52068E96820F4E0501D
:10073000084320602878000706D52068296920F43E
:10074000604040EAC100206000F038F82168084AA3
:10075000C1F30311515CC8400649086006480068AF
:10076000FFF7FAFE0020C4E7003C024008380240D0
:10077000D412000810000020080000200448054999
:1007800000680968044AC1F38221515CC84070477F
:100790001000002008380240E4120008044805490F
:1007A00000680968044AC1F34231515CC84070478F
:1007B0001000002008380240E4120008154810B567
:1007C000006810F00C02144813D04110042A0FD016
:1007D000082A0ED10F4C241F2268236802F03F0222
:1007E0005B0207D52068C0F38810A0FB010106E07A
:1007F000084610BD2168C1F38811A1FB0001002348
:10080000FFF7E0FC2168C1F30141491C4900B0FB3E
:10081000F1F010BD083802400024F4002DE9F84F33
:1008200004006ED02078DFF84C93C007A9F10405CE
:100830004AD009F104000168C1F38101012908D0FF
:100840000068C0F3810002280AD1D9F800004002F4
:1008500006D52868800337D560680028E1D033E0EA
:100860006068B0F5803F10D0B0F5A02F286810D098
:1008700020F480302860286820F480202860606898
:10088000A8B1FFF741FE06460DE0286840F480302D
:10089000F4E740F480202860F7E700BFFFF734FE5C
:1008A000801B642873D828688003F7D50CE0FFF715
:1008B0002BFE064605E000BFFFF726FE801B6428DE
:1008C000F0D828688003F7D42078DFF8AC8280075E
:1008D0004FF0000A3ED5A748001D016811F00C0F2B
:1008E00008D00068C0F3810002280BD1D9F80000BD
:1008F000400207D42868800716D5E068012800D197
:1009000012E033E1E068B8B10120C8F80000FFF759
:10091000FBFD064605E000BFFFF7F6FD801B022841
:10092000C0D828688007F7D52868216920F0F8002A
:1009300040EAC10028600DE0C8F800A0FFF7E4FD20
:10094000064604E0FFF7E0FD801B02281FD8286858
:100950008007F7D42078000722D5864F8748616941
:10096000703771B101210160FFF7CEFD064604E04A
:10097000FFF7CAFD801B022809D838688007F7D521
:100980000EE0C0F800A0FFF7BFFD064605E082E0DC
:10099000FFF7BAFD801B02287DD838688007F7D49E
:1009A0002078400768D5DFF8CCB100270BF13C0B6D
:1009B000DBF80000C0000BD4DBF8001041F08051E0
:1009C000CBF80010DBF80000012700F08050009009
:1009D0006B4E3068C00510D4306840F480703060D1
:1009E000FFF792FD009005E0FFF78EFD0099401A99
:1009F000022850D83068C005F6D55E4EA0686C3627
:100A000001280FD00528306810D020F00100306098
:100A1000306820F004003060A068B8B1FFF774FDC2
:100A200000900FE0306840F00100F4E740F004006F
:100A30003060F7E7FFF768FD0099411A41F288300E
:100A4000814266D830688007F4D50EE0FFF75CFD80
:100A5000009007E0FFF758FD0099411A41F28830F5
:100A6000814256D830688007F4D42FB1DBF80010EB
:100A700021F08051CBF80010A069C8B33D49091D91
:100A80000968C1F3810102294AD00228504607D0E3
:100A9000C8F8600000E03CE0FFF736FD04463BE0AC
:100AA0004746C8F86000FFF72FFD064605E000BF87
:100AB000FFF72AFD801B02282BD828688001F7D475
:100AC000D4E907010843A16A2E4A490802EB014113
:100AD000626A41EA8211084394F82C1040EA0161ED
:100AE000C9F8001001203866FFF70EFD044606E045
:100AF0003EE000BFFFF708FD001B022809D8286868
:100B00008001F7D534E000BFFFF7FEFC001B022890
:100B100002D90320BDE8F88F28688001F4D427E0CB
:100B20000128F7D0D9F80000E26900F48001914271
:100B30001CD1226A00F03F01914217D147F6C071E3
:100B4000626A0140B1EB821F10D1A26A4FF0FF33FD
:100B500000F4403103EB5202B1EB024F06D194F89E
:100B60002C1000F07060B0EB016F01D00120D1E7D4
:100B70000020CFE70438024000004742800E474281
:100B8000007000400000FFFF10B5401EB0F1807FF4
:100B900001D3012010BD4FF0E02460610F216017E8
:100BA00000F060FB0020A06107202061002010BD44
:100BB0007047000070B5026804461068D168536938
:100BC00010F00F0F56D003F0010501F490762E437C
:100BD0006AD0C20705D0CA0503D5226C42F00102D3
:100BE0002264420705D5DA0703D0226C42F00202E4
:100BF0002264820705D5DA0703D0226C42F0040292
:100C00002264020707D501F020022A4303D0226C98
:100C100042F008022264226C002A3ED0800608D5E9
:100C2000880606D594F83D00222820462FD000F0F3
:100C3000ADFA20684069216CC0F38010090700D428
:100C400060B3204600F0E2F920684169490621D5E9
:100C5000416921F040014161A06BD8B1384901657B
:100C6000A06BFFF727FB002817D0A06B016DBDE834
:100C700070400847830617D58B0615D594F83D00BC
:100C8000222819D12046BDE8704000F0CDB900F00F
:100C9000CBF9CEE72046FFF78BFF70BD2046FFF76C
:100CA00087FF0020206470BD030634D50B0632D5C3
:100CB00094F83D00122804D02046BDE8704000F0B2
:100CC00065BA94F83D001228EDD1A068B0F5805FB8
:100CD00001D12069B0B1606A411C6162216800786D
:100CE0004860608D401E0004000C6085DBD12068E8
:100CF000C16821F08001C1602068C16841F04001F5
:100D0000C16070BD606A0088C0F308005060606A0E
:100D1000801C6062E5E74006F3D54806F1D5D1684E
:100D2000204621F04001D16021684A6922F0010289
:100D30004A61012184F83D1000F0A8F870BD000060
:100D4000FD0F000870B5040004D094F83D000025A4
:100D500010B106E0012070BD84F83C50204600F040
:100D60001BF8022084F83D00204600F0A5F9206819
:100D7000016921F4804101612068416921F02A0163
:100D800041612068C16841F40051C16025640120BF
:100D900084F83D00002070BD10B586B004461421D3
:100DA0006846FFF747FA18492068884229D1174852
:100DB0000021026842F010020260006800F010009A
:100DC000059012481438026842F00102026000687F
:100DD00000F0010005904FF4E06000900220CDE9A2
:100DE0000101032003900720049069460848FFF79B
:100DF00085FA002211462520FFF7F4FB2520FFF796
:100E0000E3FB06B010BD0000001001404438024072
:100E10000000024090F83D30012B27D1B1B1AAB1BA
:100E200090F83C30012B21D0C1620286428600211D
:100E30000164222280F83D2080F83C1001690029DD
:100E40000168CA6804D042F4907203E00120704740
:100E500042F02002CA6001684A6942F001024A6118
:100E6000006840F2FF114160002070470220704787
:100E70000449884204D1012203490248FFF7CABF4E
:100E800070470000140000200000002070477047E9
:100E9000FEE7000070B586B014216846FFF7CAF976
:100EA00016480024016841F020010160016801F04A
:100EB00020010591016841F080010160016801F0A5
:100EC00080010591016841F00101016000680C4E4C
:100ED00000F001004FF4C06505900122294630461C
:100EE000FFF70CFB01200095CDE90104694630466F
:100EF0000394FFF703FA06B070BD000030380240DB
:100F0000001402400D4810B50B4901604FF4E13167
:100F10004160002181600C22C160C0E9041281613E
:100F2000C1610162FFF70EFF002803D0BDE8104049
:100F3000FFF7BEB910BD00000010014014000020F2
:100F4000FEE7FEE770477047FFF7E4BA30B593B0AD
:100F500030216846FFF76EF914210CA8FFF76AF9F3
:100F60001D480025016841F080510160006800F0D3
:100F7000805011901948016841F480410160006877
:100F8000022400F4804011900120009000040190A0
:100F90008001CDE9064008AA0420A82182E81300B8
:100FA0000B906846FFF73AFC08B172B6FEE70CA951
:100FB0000F2081E831004FF4A0500F904FF4805083
:100FC000109005210CA8FFF73FFB002801D072B656
:100FD000FEE713B030BD0000403802400070004012
:100FE0000248016841F470010160704788ED00E03B
:100FF0000148FFF7DFBD00001400002010B5806B32
:10100000002141864185FFF7D3FD10BD0168CA6804
:1010100022F49072CA6001684A6922F001024A61B2
:10102000012180F83D10704710B590F83D1022293D
:1010300001D0022010BD82684FF480539A4201D142
:10104000016921B1C16A9A421ED04AB10AE0026820
:10105000C16A5268C2F308020A80C16A891C08E0AA
:1010600002698AB10268526802F07F020A70C16A9E
:10107000491CC162418E491E4186418E39B10068CA
:10108000FF214160002010BD02685268EEE7016850
:10109000CA6822F02002CA600168CA6822F480721D
:1010A000CA6001684A6922F001024A61012180F8A0
:1010B0003D10FFF7DDFEE5E72DE9F041044600684D
:1010C000C16821F00C01C16021680869E56820F45D
:1010D0007C52D4E906031843236A2B431843104378
:1010E00040F4006008612068C16849F20C629143D5
:1010F0002369A2681A4363690B431A4342F400410F
:10110000C1602068416921F4407141611D49206836
:101110000027192664254FF03208884202D01A4968
:10112000884202D1FFF73AFB01E0FFF727FB616835
:101130004A18A0FB060147EB0703FFF743F80146F7
:10114000B0FBF5F00301B1FBF5F06FF0180250436E
:1011500001EB800008EBC000B0FBF5F000F0F800F8
:1011600003EB4003B1FBF5F0504301EB800008EBCB
:10117000C000B0FBF5F0216800F00700184488605B
:10118000BDE8F081001001400014014010B590F856
:101190003D10322901D0022010BD418D4FF4805303
:1011A00011B301680A68D24312061DD482689A42BC
:1011B00001D1026952B1426A541C446212784A60F9
:1011C000418D491E4185418D49B10DE0426A128829
:1011D000C2F308024A60416A891C4162F0E7016873
:1011E000CA6822F08002CA60418EF9B101680A68BB
:1011F000D24392061AD482689A4209D10269C2B9CE
:10120000C26A4968C1F308011180C16A891C09E0FA
:101210000AB902696AB1496801F07F01C26A1170B6
:10122000C16A491CC162418E491E4186418E11B17D
:1012300015E04968F2E70168CA6822F02002CA6036
:101240000168CA6822F48072CA6001684A6922F0A3
:1012500001024A61012180F83D10FFF718FE0020CD
:1012600010BDFEE70907090E002804DB00F1E020AD
:1012700080F80014704700F00F0000F1E02080F8C3
:10128000141D704702E008C8121F08C1002AFAD1D5
:1012900070477047002001E001C1121F002AFBD1F6
:1012A00070470000FFF73EF9FFF750FEFFF7F2FD31
:1012B000FFF728FE064D4FF4806440F24E2621468B
:1012C0002846FFF713F93046FFF706F8F7E7000066
:1012D00000140240000000000000000001020304AE
:1012E0000607080900000000010203040C130008AF
:1012F00000000020140000008412000820130008E1
:1013000014000020440400009412000800000000B3
:101310000100000010000000000000000024F400A4
:040000050800018965
:00000001FF
